:020000040800F2
:1000000000000120050300080B030008110300088D
:1000100033030008390300085B03000800000000F8
:100020000000000000000000000000007D03000848
:100030008303000800000000890300088F03000804
:10004000AD030008AD030008AD030008AD030008D0
:10005000AD030008AD030008AD030008AD030008C0
:10006000AD030008AD030008AD030008AD030008B0
:10007000AD030008AD030008AD030008AD030008A0
:10008000AD030008AD030008AD0300080000000048
:10009000000000000000000000000000AD030008A8
:1000A000AD030008AD030008AD030008AD03000870
:1000B000AD030008AD030008AD030008AD03000860
:1000C000AD030008AD030008AD030008AD03000850
:1000D000AD030008AD030008AD03000800000000F8
:1000E000AD030008AD030008AD03000800000000E8
:1000F000000000000000000000000000AD03000848
:1001000000000000AD030008AD030008AD030008C7
:1001100000000000000000000000000000000000DF
:10012000AD030008AD030008AD030008AD030008EF
:10013000AD03000800000000000000000000000007
:10014000000000000000000000000000AD030008F7
:10015000AD030008AD030008AD030008AD030008BF
:10016000AD030008AD03000800000000000000001F
:10017000000000000000000000000000000000007F
:1001800000000000AD0300080000000000000000B7
:10019000AD03000880B596B000AF00F037F94F4BC3
:1001A0007B6524E07B6D1A1D7A651B683B647B6D63
:1001B0001A1D7A651B68FB637B6D1A1D7A651B68C7
:1001C000BB633B6C7B63FB6B3B63BB6BFB623B6B5F
:1001D000BB6207E07A6B131D7B63BB6A191DB962B2
:1001E00012681A60FA6ABB6A9A42F3D800BF7B6D44
:1001F0003B4A9342D6D33B4B3B651AE03B6D1A1DFD
:100200003A651B68BB643B6D1A1D3A651B687B64CD
:10021000BB6C7B627B6C3B627B6AFB6104E0FB69CD
:100220001A1DFA6100221A603A6AFB699A42F6D8EE
:1002300000BF3B6D2C4A9342E0D300F0F5F83A1D25
:1002400007F108031146184600F0CEF8274A284B5C
:10025000D31A9B103B610023FB6007E0244AFB6834
:1002600052F823309847FB680133FB603A69FB681A
:100270009A42F3DC1F4A204BD31A9B103B610023A8
:10028000FB6007E01C4AFB6852F823309847FB6884
:100290000133FB603A69FB689A42F3DC00BFBB683C
:1002A0007A681146184600F06BF9F864134A144B4B
:1002B000D31A9B10BB61BB697B6108E07B69013B82
:1002C0000F4A52F8233098477B69013B7B617B6979
:1002D000002BF3DC00BFF86C00F080F8B4030008DA
:1002E000CC030008CC030008DC030008DC03000892
:1002F000DC030008DC030008DC030008DC03000862
:10030000DC0300082548004700BF80B400AFFEE7CB
:100310001EF0040F0CBFEFF30880EFF30980714665
:100320001F4A104700BF80B483B000AF78603960C7
:10033000FEE780B400AFFEE71EF0040F0CBFEFF342
:100340000880EFF309807146164A104700BF80B459
:1003500083B000AF78603960FEE71EF0040F0CBF79
:10036000EFF30880EFF3098071460F4A104700BF92
:1003700080B483B000AF78603960FEE780B400AF2E
:10038000FEE780B400AFFEE780B400AFFEE780B4C4
:1003900000AF00BFBD4680BC70470000950100085B
:1003A000270300084F0300087103000880B400AF62
:0203B000FEE766
:1003B40050160008000000204000002050160008DD
:1003C4000000001000000010400000204400002045
:0803D400000000100000001001
:1003DC0080B582B000AF786000F03CF880B483B098
:1003EC0000AF786039607B6801221A603B68034A71
:1003FC001A6000BF0C37BD4680BC7047000000205F
:10040C0080B500AF00F02AF8024B034A9A6000BF97
:10041C0080BD00BF00ED00E00000000880B500AF1B
:10042C0000F028F800BF80BD80B400AFBFF34F8F41
:10043C0000BF064BDB6803F4E0620449044B134332
:10044C00CB60BFF34F8F00BF00BFFDE700ED00E0B6
:10045C000400FA0580B500AFFFF7E6FF80B400AFEB
:10046C00034B4FF000629A6000BFBD4680BC7047E2
:10047C0000ED00E080B487B000AF00233B610023A7
:10048C007B610223FB600023BB6002237B60344B47
:10049C009B6803F00C033B613B69082B11D03B6953
:1004AC00082B44D83B69002B03D03B69042B04D0A8
:1004BC003DE02C4B2C4A1A603DE02A4B2B4A1A602B
:1004CC0039E0274B5B689B0D03F00103BB60244BA9
:1004DC005B6803F03F037B60BB68002B0CD0234AA6
:1004EC007B68B2FBF3F31E4A52689209C2F308020E
:1004FC0002FB03F37B610BE01B4A7B68B2FBF3F35B
:10050C00174A52689209C2F3080202FB03F37B619B
:10051C00134B5B681B0C03F0030301335B00FB60A4
:10052C007A69FB68B2FBF3F30E4A136003E00D4BE0
:10053C000D4A1A6000BF0A4B9B681B0903F00F039E
:10054C000B4AD35C3B61074B1A683B6922FA03F3F5
:10055C00044A136000BF1C37BD4680BC704700BF07
:10056C0000380240080000200024F40000127A0039
:10057C001416000880B586B004AF00F01BFA0020FA
:10058C0000F026FA012000F023FA022000F020FAF5
:10059C006C2000F01DFA00F069FA234800F0DCFB37
:1005AC000521224800F048FC0621204800F044FCBC
:1005BC0007211E4800F040FC1C4B01229A700421BC
:1005CC001A4800F039FC1A4800F0FFF80422012107
:1005DC00164800F0D3FC0021154800F02BF804223B
:1005EC000021124800F0CAFC4FF47A7000F006FDAE
:1005FC0000F016FC0E4B0D493A1D0292042201929A
:10060C009A6800920CCB03C900F075F897F9043086
:10061C00184600F0F1FB2E2000F000FB97F9053096
:10062C00184600F0E9FBDFE724160008180000204C
:10063C000C00002080B584B000AF78600B46FB70D6
:10064C000023FB7397F9033003F001035AB297F9B7
:10065C000F3013435BB2FB73FB781B09DBB21B013E
:10066C005BB203F010035AB297F90F3013435BB22D
:10067C00FB73FB7B1A468021786800F004F800BFFE
:10068C001037BD4680BD80B582B000AF78600B4698
:10069C00FB701346BB707B681A68FB7863F07F03B2
:1006AC00DBB21946104600F062F97B681B68BA7819
:1006BC001146184600F05BF900BF0837BD4680BDF7
:1006CC0080B582B000AF78600B46FB707B681A680F
:1006DC00FB7803F07F03DBB21946104600F047F9B4
:1006EC007B681B680021184600F041F90346184648
:1006FC000837BD4680BD82B090B585B000AF3C4692
:10070C0084E8030007F1200181E80C000023FB734F
:10071C0097F82C203B460121184600F02FFC0121B4
:10072C0007F12000FFF7CCFF0346FB7397F82C2052
:10073C003B460021184600F021FC3B6B01330022A4
:10074C001A70FB7BDB09DBB203F00103002B0AD030
:10075C003B6B013393F90030DBB23233DAB23B6BD3
:10076C00013352B21A70FB7B9B09DBB203F001031D
:10077C00002B0AD03B6B013393F90030DBB21933F9
:10078C00DAB23B6B013352B21A7097F82C203B460D
:10079C000121184600F0F2FB022107F12000FFF7BF
:1007AC008FFF0346FB7397F82C203B46002118461D
:1007BC0000F0E4FB97F90F203B6B1A7000BF143765
:1007CC00BD46BDE8904002B0704780B483B000AF26
:1007DC0078607B681B681A687B681B6842F48072BF
:1007EC001A607B681B681A687B681B6822F04002E1
:1007FC001A607B681B681A687B681B6822F004020D
:10080C001A607B681B681A687B681B799B00194609
:10081C007B681B680A431A607B685B79022B17D0D4
:10082C00022B26DC002B0AD0012B22D17B681B6803
:10083C001A687B681B6822F400421A6019E07B6816
:10084C001B681A687B681B6842F400421A6010E04F
:10085C007B681B681A687B681B6822F400421A606C
:10086C007B681B681A687B681B6842F480621A609C
:10087C0000BF7B681B681A687B681B6822F0180233
:10088C001A607B681B681A687B689B79DB001946C9
:10089C007B681B680A431A607B681B681A687B6854
:1008AC001B6822F400621A607B681B681A687B68FC
:1008BC00DB79DB0219467B681B680A431A607B688C
:1008CC001B681A687B681B6822F002021A607B683E
:1008DC001B681A687B681B7A5B0019467B681B686F
:1008EC000A431A607B681B681A687B681B6822F0D5
:1008FC0001021A607B681B681A687B685B7A194670
:10090C007B681B680A431A607B681B681A687B68E3
:10091C001B6822F080021A607B681B681A687B686F
:10092C009B7ADB0119467B681B680A431A607B685B
:10093C001B681A687B681B6822F400721A607B685B
:10094C001B681A687B68DB7A5B0219467B681B683C
:10095C000A431A607B681B681A687B681B6842F044
:10096C0040021A6000BF0C37BD4680BC704780B493
:10097C0083B000AF78600B46FB707B689B685B08AC
:10098C0003F00103002B0ED0FA787B68DA6000BF0D
:10099C007B689B68DB0903F00103002BF8D17B68B3
:1009AC00DB68DBB200E0FF2318460C37BD4680BC89
:1009BC007047000080B400AF044B1B68034A43F03F
:1009CC000103136000BFBD4680BC70470038024075
:1009DC0080B485B000AF0346FB71FB795B09FB73F8
:1009EC00FB7903F01F03BB73FB7B032B36D801A2EF
:1009FC0052F823F0110A0008270A00083D0A0008E3
:100A0C00530A0008184B1B6BBA7B012101FA02F246
:100A1C001146154A0B43136321E0134B5B6BBA7BF6
:100A2C00012101FA02F211460F4A0B43536316E0FF
:100A3C000D4B1B6CBA7B012101FA02F211460A4ADA
:100A4C000B4313640BE0084B5B6CBA7B012101FA7E
:100A5C0002F21146044A0B43536400E000BF00BF8E
:100A6C001437BD4680BC70470038024080B500AFDB
:100A7C001A4B42221A700021184800F0DDF9174B6E
:100A8C0042221A700221154800F0D6F9142000F009
:100A9C00B5FA124B43221A700421104800F0CCF91D
:100AAC0005210E4800F0C8F906210C4800F0C4F9E5
:100ABC0007210A4800F0C0F9332000F011F8322069
:100ACC0000F00EF8282000F00BF80C2000F008F8CD
:100ADC00012000F005F800BF80BD00BF2000002001
:100AEC0080B582B000AF0346FB714B4B42221A70AB
:100AFC0000220021484800F041FA012000F07EFA63
:100B0C00454B42221A7002220121434800F036FA6A
:100B1C00012000F073FA404B43221A70FB791B0939
:100B2C00DBB203F00103DBB2042219463A4800F0B1
:100B3C0025FAFB795B09DBB203F00103DBB205227A
:100B4C001946354800F01AFAFB799B09DBB203F021
:100B5C000103DBB2062219462F4800F00FFAFB798D
:100B6C00DB09DBB2072219462B4800F007FA2A4BA7
:100B7C0042221A70012000F041FA0222002126487C
:100B8C0000F0FCF9012000F039FA02220121224880
:100B9C0000F0F4F9012000F031FA1F4B43221A70D7
:100BAC00FB7903F00103DBB2042219461A4800F06A
:100BBC00E5F9FB795B08DBB203F00103DBB205223C
:100BCC001946154800F0DAF9FB799B08DBB203F003
:100BDC000103DBB2062219460F4800F0CFF9FB796E
:100BEC00DB08DBB203F00103DBB2072219460A482B
:100BFC0000F0C4F9084B42221A70012000F0FEF9F3
:100C0C0002220021044800F0B9F9012000F0F6F9A5
:100C1C0000BF0837BD4680BD2000002080B582B0E3
:100C2C0000AF0346FB714B4B42221A70002201218C
:100C3C00484800F0A3F9012000F0E0F9454B4222AE
:100C4C001A7002220121434800F098F9012000F0AB
:100C5C00D5F9404B43221A70FB791B09DBB203F028
:100C6C000103DBB2042219463A4800F087F9FB79FC
:100C7C005B09DBB203F00103DBB2052219463548F0
:100C8C0000F07CF9FB799B09DBB203F00103DBB2CA
:100C9C00062219462F4800F071F9FB79DB09DBB20B
:100CAC00072219462B4800F069F92A4B42221A7088
:100CBC00012000F0A3F902220021264800F05EF981
:100CCC00012000F09BF902220121224800F056F984
:100CDC00012000F093F91F4B43221A70FB7903F0AB
:100CEC000103DBB2042219461A4800F047F9FB79DC
:100CFC005B08DBB203F00103DBB205221946154891
:100D0C0000F03CF9FB799B08DBB203F00103DBB28A
:100D1C00062219460F4800F031F9FB79DB08DBB2EB
:100D2C0003F00103DBB2072219460A4800F026F94A
:100D3C00084B42221A70012000F060F902220021B7
:100D4C00044800F01BF9012000F058F900BF0837E7
:100D5C00BD4680BD2000002080B584B000AF786017
:100D6C000023FB730BE0FB7B7A68134493F9003090
:100D7C00DBB21846FFF752FFFB7B0133FB73FB7BA7
:100D8C007A68134493F90030002BECD100BF00BFFC
:100D9C001037BD4680BD000080B584B000AF03465F
:100DAC000A46FB711346BB71FB79032B19D801A2C0
:100DBC0052F823F0D10D0008D70D0008DF0D000804
:100DCC00E70D0008BB79FB730BE0BB794033FB7379
:100DDC0007E0BB791033FB7303E0BB795033FB7333
:100DEC0000BFFB7B63F07F03DBB21846FFF778FE96
:100DFC0000BF1037BD4680BD80B586B000AF7860AF
:100E0C0007F108030A221946786800F0B9FB07F1CC
:100E1C0008031846FFF7A0FF00BF1837BD4680BD7A
:100E2C0080B500AF0120FFF75BFE00210020FFF72B
:100E3C00B3FF00BF80BD000080B487B000AF786006
:100E4C000B46FB707B681B78413BFB75FB7D4A4A6C
:100E5C0052F823303B613B691B68FA78520003213E
:100E6C0001FA02F2D2431A403B691A603B691B68D3
:100E7C007A6892781146FA78520001FA02F21A4313
:100E8C003B691A603B699B68FA785200032101FAAE
:100E9C0002F2D2431A403B699A603B699B687A68BC
:100EAC0052781146FA78520001FA02F21A433B6961
:100EBC009A603B695B68FA78012101FA02F2D2432D
:100ECC001A403B695A603B695B687A68D278114674
:100EDC00FA7801FA02F21A433B695A603B69DB6803
:100EEC00FA78012101FA02F2D2431A403B69DA6026
:100EFC003B69DB687A6812791146FA78520001FA7C
:100F0C0002F21A433B69DA607B689B78022B2DD185
:100F1C00FB78DB08FB73FB7803F00703BB73FA7BEE
:100F2C003B69083253F822307A6852791146BA7B01
:100F3C00920001FA02F2D2431146FA7B19403B6946
:100F4C00083243F82210FA7B3B69083253F82230FE
:100F5C007A6852791146BA7B920001FA02F2114674
:100F6C00FA7B19433B69083243F8221000BF1C3747
:100F7C00BD4680BC704700BF2800002080B485B0FF
:100F8C0000AF78600B46FB701346BB707B681B7818
:100F9C00413BFB73FB7B184A52F82330BB60BB68A8
:100FAC001B68BA785200032101FA02F21A40BB788E
:100FBC005B0022FA03F3012B01D0002317E0FB782E
:100FCC00012B09D1BB685B69BA78012101FA02F2E5
:100FDC001A43BB685A6109E0BB685B69BA780121A6
:100FEC0001FA02F2D2431A40BB685A610123184637
:100FFC001437BD4680BC70472800002090B587B0E0
:10100C0000AF7860114B3B61786800F0D9F804466A
:10101C000F49386900F02CF903461946204600F0B8
:10102C00DBF90346184600F073FA0346FB60002315
:10103C007B6102E07B6901337B617A69FB689A42D0
:10104C00F8D300BF00BF1C37BD4690BDBD378635F9
:10105C0000007A4480F0004002E000BF81F00041C3
:10106C0042001FBF5FEA410392EA030F7FEA226C42
:10107C007FEA236C6AD04FEA1262D2EB1363C1BFD2
:10108C00D218414048404140B8BF5B42192B88BF41
:10109C00704710F0004F40F4000020F07F4018BF64
:1010AC00404211F0004F41F4000121F07F4118BF84
:1010BC00494292EA030F3FD0A2F1010241FA03FC2C
:1010CC0010EB0C00C3F1200301FA03F100F0004314
:1010DC0002D5494260EB4000B0F5000F13D3B0F1DC
:1010EC00807F06D340084FEA310102F10102FE2A4B
:1010FC0051D2B1F1004F40EBC25008BF20F00100BB
:10110C0040EA03007047490040EB0000013A28BF59
:10111C00B0F5000FEDD2B0FA80FCACF1080CB2EBDC
:10112C000C0200FA0CF0AABF00EBC250524218435A
:10113C00BCBFD0401843704792F0000F81F40001FF
:10114C0006BF80F400000132013BB5E74FEA4103D2
:10115C007FEA226C18BF7FEA236C21D092EA030F3E
:10116C0004D092F0000F08BF0846704790EA010FB8
:10117C001CBF0020704712F07F4F04D1400028BFE5
:10118C0040F00040704712F100723CBF00F50000C7
:10119C00704700F0004343F0FE4040F400007047FD
:1011AC007FEA226216BF08467FEA236301464202A9
:1011BC0006BF5FEA412390EA010F40F480007047BC
:1011CC004FF0000304E000BF10F0004348BF404262
:1011DC005FEA000C08BF704743F0964301464FF09E
:1011EC0000001CE050EA010208BF70474FF00003FA
:1011FC000AE000BF50EA010208BF704711F000433B
:10120C0002D5404261EB41015FEA010C02BF84460A
:10121C000146002043F0B64308BFA3F18053A3F569
:10122C000003BCFA8CF2083AA3EBC25310DB01FAB0
:10123C0002FC634400FA02FCC2F12002BCF1004F34
:10124C0020FA02F243EB020008BF20F001007047C5
:10125C0002F1200201FA02FCC2F1200250EA4C0019
:10126C0021FA02F243EB020008BF20EADC7070475F
:10127C004FF0FF0C1CEAD0521EBF1CEAD15392EA6D
:10128C000C0F93EA0C0F6FD01A4480EA010C400249
:10129C0018BF5FEA41211ED04FF0006343EA5010A3
:1012AC0043EA5111A0FB01310CF00040B1F5000FE5
:1012BC003EBF490041EAD3715B0040EA010062F194
:1012CC007F02FD2A1DD8B3F1004F40EBC25008BF7E
:1012DC0020F00100704790F0000F0CF0004C08BF9C
:1012EC0049024CEA502040EA51207F3AC2BFD2F169
:1012FC00FF0340EAC250704740F400004FF0000377
:10130C00013A5DDC12F1190FDCBF00F000407047B0
:10131C00C2F10002410021FA02F1C2F1200200FAEE
:10132C0002FC5FEA310040F1000053EA4C0308BFB5
:10133C0020EADC70704792F0000F00F0004C02BF06
:10134C00400010F4000F013AF9D040EA0C0093F081
:10135C00000F01F0004C02BF490011F4000F013BDB
:10136C00F9D041EA0C018FE70CEAD15392EA0C0F49
:10137C0018BF93EA0C0F0AD030F0004C18BF31F0B4
:10138C00004CD8D180EA010000F00040704790F08A
:10139C00000F17BF90F0004F084691F0000F91F02E
:1013AC00004F14D092EA0C0F01D142020FD193EAF4
:1013BC000C0F03D14B0218BF084608D180EA01007C
:1013CC0000F0004040F0FE4040F40000704740F058
:1013DC00FE4040F4400070474FF0FF0C1CEAD05226
:1013EC001EBF1CEAD15392EA0C0F93EA0C0F69D082
:1013FC00A2EB030280EA010C49024FEA402037D0ED
:10140C004FF0805343EA111143EA10130CF00040E3
:10141C008B4238BF5B0042F17D024FF4000C8B42D3
:10142C0024BF5B1A40EA0C00B3EB510F24BFA3EBB3
:10143C00510340EA5C00B3EB910F24BFA3EB910383
:10144C0040EA9C00B3EBD10F24BFA3EBD10340EADD
:10145C00DC001B0118BF5FEA1C1CE0D1FD2A3FF623
:10146C0050AF8B4240EBC25008BF20F001007047D8
:10147C000CF0004C4CEA50207F32C2BFD2F1FF037B
:10148C0040EAC250704740F400004FF00003013AAC
:10149C0037E792F0000F00F0004C02BF400010F450
:1014AC00000F013AF9D040EA0C0093F0000F01F064
:1014BC00004C02BF490011F4000F013BF9D041EA86
:1014CC000C0195E70CEAD15392EA0C0F08D14202B9
:1014DC007FF47DAF93EA0C0F7FF470AF084676E78C
:1014EC0093EA0C0F04D14B023FF44CAF08466EE765
:1014FC0030F0004C18BF31F0004CCAD130F0004233
:10150C007FF45CAF31F000437FF43CAF5FE700BF8A
:10151C0042000ED2B2F1FE4F0BD34FF09E03B3EB51
:10152C00126209D44FEA002343F0004323FA02F07D
:10153C0070474FF00000704712F1610F01D1420269
:10154C0002D14FF0FF3070474FF00000704700BFE2
:10155C00931E222B10B50C4604D900230B701C468D
:10156C00204610BD0A2A09D1002807DA2D230B705A
:10157C0040420121214400F005F8F1E70021F9E790
:10158C00FFF7E6BFF0B51F4C8BB005460B466E4619
:10159C0004F1200C20686168374603C708346445A1
:1015AC003E46F7D121793971911E20683860222985
:1015BC004FF0000104D919700B4618460BB0F0BD62
:1015CC00581E8446B5FBF2F702FB175628366E44BC
:1015DC000C4616F8286C0CF8016F2E46B24201F13D
:1015EC0001013D46EED900225A541919A51AAA42F6
:1015FC00E3DA10F8015F0E780670013201F8015938
:10160C00F4E700BF2A1600080000000000000000EC
:10161C00010203040607080948454C4C4F003031C1
:10162C0032333435363738396162636465666768DE
:10163C00696A6B6C6D6E6F70717273747576777896
:03164C00797A00A8
:1016500040000020000000000024F40000300140A1
:101660000101000000010001410102000005FFFF2F
:10167000420101000000FFFF0000024000040240A0
:1016800000080240000C024000100240001C024012
:040000050800019559
:00000001FF
